:020000040800F2
:1000000008390020290200083D190008CD17000812
:1000100039190008770400085D1E00080000000080
:100020000000000000000000000000001D1B000890
:100030007B04000800000000411900081F1B000895
:10004000430200084302000843020008430200087C
:10005000430200084302000843020008430200086C
:10006000430200084302000843020008430200085C
:10007000430200084302000843020008430200084C
:10008000430200084302000843020008430200083C
:10009000430200084302000843020008430200082C
:1000A000430200084302000843020008430200081C
:1000B000430200084302000843020008430200080C
:1000C00043020008430200084302000843020008FC
:1000D00043020008430200084302000843020008EC
:1000E00043020008430200084302000843020008DC
:1000F00043020008430200084302000843020008CC
:1001000043020008430200084302000843020008BB
:1001100043020008430200084302000843020008AB
:10012000430200084302000843020008430200089B
:10013000430200084302000843020008430200088B
:10014000430200084302000843020008430200087B
:10015000430200084302000843020008430200086B
:10016000430200084302000843020008430200085B
:100170004302000843020008430200080000000098
:10018000430200084302000800F002F800F03CF8C7
:100190000AA090E8000C82448344AAF10107DA45E2
:1001A00001D100F031F8AFF2090EBAE80F0013F0F8
:1001B000010F18BFFB1A43F001031847DC4C000085
:1001C000FC4C0000103A24BF78C878C1FAD8520716
:1001D00024BF30C830C144BF04680C6070470000C1
:1001E0000023002400250026103A28BF78C1FBD840
:1001F000520728BF30C148BF0B6070471FB504F0DD
:10020000EBFD1FBD10B510BD00F000F91146FFF762
:10021000F5FF04F0EFF900F01EF903B4FFF7F2FF69
:1002200003BC00F021F90000094880470948004755
:10023000FEE7FEE7FEE7FEE7FEE7FEE7FEE7FEE796
:10024000FEE7FEE704480549054A064B70470000F3
:10025000DD1B000889010008083300200839002050
:10026000083500200835002053EA020C00F06980B0
:100270002DE9F04B4FF00006002B1FBFB3FA83F5BA
:1002800003FA05F424FA05F65E4012BF1643B2FAEB
:1002900082F502FA05F4C5F120051EBF22FA05FC1D
:1002A00044EA0C04203556EA044C4FEA144418BFC3
:1002B000641C4FF000084FF00009904271EB030CF2
:1002C00039D3002919BFB1FA81F701FA07F6B0FA5C
:1002D00080F700FA07F6C7F120071EBF20FA07FCD7
:1002E00046EA0C062037B6FBF4FCA7EB0507103FE7
:1002F00007F01F0BCBF120060CFA0BFB2CFA06F6CD
:1003000044BFB3460026202FA4BF5E464FF0000B2B
:100310005BEA060C08BF4FF0010B19EB0B09ABFBB6
:10032000027C48EB0608C01B06FB02CC0BFB03CC8F
:1003300071EB0C01C1E70B46024641464846BDE859
:10034000F08B13B54FF000004FF00001AFF30080C9
:10035000BDE81C40704740EA010310B59B070FD170
:10036000042A0DD310C808C9121F9C42F8D020BA25
:1003700019BA884201D9012010BD4FF0FF3010BDDD
:100380001AB1D30703D0521C07E0002010BD10F8AB
:10039000013B11F8014B1B1B07D110F8013B11F871
:1003A000014B1B1B01D1921EF1D1184610BD4FF01D
:1003B000000200B5134694469646203922BFA0E8B5
:1003C0000C50A0E80C50B1F12001BFF4F7AF0907C1
:1003D00028BFA0E80C5048BF0CC05DF804EB8900B2
:1003E00028BF40F8042B08BF704748BF20F8022BF5
:1003F00011F0804F18BF00F8012B7047704770470D
:100400007047000000487047A43200207546FFF78F
:10041000F9FFAE4605006946534620F007008546C1
:1004200018B020B5FFF70EFFBDE820404FF00006E2
:100430004FF000074FF000084FF0000B21F00701CC
:10044000AC46ACE8C009ACE8C009ACE8C009ACE80F
:10045000C0098D46704710B50446AFF300802046B2
:10046000BDE81040FFF7D9BE01491820ABBEFEE73A
:1004700026000200704700BFFEE7704772B600BF5B
:10048000FEE730B504460D4600222946204600F01E
:1004900001F830BDF0B50346012500241148407A2B
:1004A00001281CDA00200F4E767A0E4FB8553846D8
:1004B000467A001D40F82630001F467A08308255E3
:1004C0003E46707A461C7E72044604F13000087085
:1004D0003A2048702F2088700020C87000252846D8
:1004E000F0BD00008832002070B5044600F010F91D
:1004F00006462546681C10B104480078054400BF34
:1005000000F006F9801BA842FAD370BDA4000020B9
:10051000F8B502460B460025002400200021D6E055
:10052000012606FA01F51E6806EA0504AC4274D1FC
:100530001E7906F00306012E04D01E7906F003068C
:10054000022E13D190684F000326BE40B0434F00E7
:10055000DE68BE4030439060506801268E40B04354
:100560001E79C6F300168E40304350601E7906F0A7
:100570000306032E09D0D0684F000326BE40B043C7
:100580004F009E68BE403043D0601E7906F00306DF
:10059000022E13D1CF0802F1200656F827004E078D
:1005A000F70E0F26BE40B0434F07FF0E1E69BE4038
:1005B0003043CF0802F1200646F8270010684F00AC
:1005C0000326BE40B0431E7906F003064F00BE402E
:1005D000304310605E6806F44036002E76D000BFCF
:1005E000002600963C4E366846F480463A4F3E6000
:1005F0003E46366806F48046009600BF00BF374E80
:100600008F0856F827008E07370F0F26BE40B043DD
:10061000334EB24202D1002624E057E0314EB242BE
:1006200001D101261EE0304EB24201D1022619E06E
:100630002E4EB24201D1032614E02D4EB24201D11A
:1006400004260FE02B4EB24201D105260AE02A4EC5
:10065000B24201D1062605E0284EB24201D107265A
:1006600000E008268F073F0FBE4030431B4E8F0827
:1006700046F82700224E3068A0435E6806F48016D4
:1006800006B120431E4E3060361D3068A0435E68C0
:1006900006F4001606B12043194E361D3060184E80
:1006A000361F3068A0435E6806F4003606B120436A
:1006B000134E361F3060361F3068A0435E6806F464
:1006C000803606B120430E4E083E3060491C10298A
:1006D000FFF426AFF8BD000044380240083801405E
:1006E000000002400004024000080240000C0240EA
:1006F000001002400014024000180240001C02409A
:10070000083C01400AB1816101E00B04836170473C
:1007100001480068704700009C0000200348006802
:100720000349097808440149086070479C0000208B
:10073000A400002010B50D48006840F400700B497B
:1007400008600846006840F4806008600846006859
:1007500040F480700860032000F092F80F2000F051
:1007600007F800F02BF8002010BD0000003C02400C
:1007700070B504460E4800784FF47A71B1FBF0F082
:100780000C490968B1FBF0F5284600F087FF08B175
:10079000012070BD102C07D200222146501E00F00F
:1007A00031F80548046001E00120F2E70020F0E79D
:1007B000A4000020A8000020A000002008B500BF71
:1007C000002000900E48006840F480400C4908600A
:1007D0000846006800F48040009000BF00BF00BFE2
:1007E00000200090081F006840F08050091F08603A
:1007F0000846006800F08050009000BF00BF08BDB0
:10080000443802402DE9F05F80460D461646002729
:1008100001F04CFE074639462A46334601F00700F0
:10082000C0F1070ABAF1040F02D94FF0040A01E03F
:10083000C0F1070AD14600F1040ABAF1070F02D24B
:100840004FF0000A01E0A0F1030AD4464FF0010A7C
:100850000AFA09FAAAF1010A0AEA020A0AFA0CFAE1
:100860004FF0010B0BFA0CFBABF1010B0BEA030B86
:100870004AEA0B042146404601F020FEBDE8F09F05
:1008800000BF00F00702064B19684FF6FF0319403E
:10089000044B0B4343EA0221014B196000BF704730
:1008A0000CED00E00000FA0570B504460D460CB9E9
:1008B000012070BD5848006800F00700A84209D226
:1008C00055490D700846006800F00700A84201D0A5
:1008D0000120EEE7207800F0020002281DD12078E8
:1008E00000F00400042805D14C48006840F4E050B2
:1008F0004A490860207800F00800082805D14748D8
:10090000006840F46040454908604448006820F0B1
:10091000F000A168084341490860207800F0010018
:10092000A8B36068012807D13C4808380068C0F3C4
:100930004040B8B90120BCE76068022802D0606876
:10094000032807D1354808380068C0F3406048B92B
:100950000120AEE7314808380068C0F3400008B90C
:100960000120A6E72D48006820F0030061680843D5
:100970002A490860FFF7CCFE064609E0FFF7C8FEEB
:10098000801B41F28831884202D9032091E707E0B9
:100990002248006800F00C006168B0EB810FEDD1D7
:1009A0001D48006800F00700A84209D91A490D70D7
:1009B0000846006800F00700A84201D0012078E74F
:1009C000207800F00400042807D11448006820F4BF
:1009D000E050E168084311490860207800F0080001
:1009E000082808D10D48006820F46040216940EAD9
:1009F000C1000A49086000F03FF808490968C1F3DE
:100A00000311074A515CC84006490860064800685F
:100A1000FFF7AEFE00204CE7003C024008380240E1
:100A2000E24D0008A8000020A00000200148006856
:100A300070470000A800002000B5FFF7F7FF044949
:100A40000968C1F38221034A515CC84000BD00001F
:100A500008380240F24D000800B5FFF7E7FF0449EF
:100A60000968C1F34231034A515CC84000BD00002F
:100A700008380240F24D00082DE9F0470024002517
:100A80000026A1462548006800F00C0020B104288B
:100A900005D008283AD105E0DFF8849039E0DFF886
:100AA000849036E01D48001F006800F03F041B489A
:100AB000001F006800F4800078B11A481749091F28
:100AC0000968C1F38811A0FB01700146224600238A
:100AD0003846FFF7C9FB05460EE011480F49091FCC
:100AE0000968C1F38811A0FB01700146224600236A
:100AF0003846FFF7B9FB05460848001F0068C0F3F9
:100B00000140401C4600B5FBF6F902E0DFF810900A
:100B100000BF00BF4846BDE8F0870000083802402B
:100B20000024F40040787D01F8B504460CB901209A
:100B3000F8BD207800F00100002874D0F948006862
:100B400000F00C0004280DD0F648006800F00C00FE
:100B5000082813D1F348001F006800F48000B0F5A6
:100B6000800F0BD1EF4808380068C0F340400028E0
:100B700059D06068002856D10120D9E700BF6068CD
:100B8000B0F5803F08D1E7480838006840F480306D
:100B9000E449083908601EE06068B0F5A02F0DD167
:100BA000E0480838006840F48020DE4908390860D1
:100BB0000846006840F4803008600CE0D9480838E6
:100BC000006820F48030D74908390860084600687A
:100BD00020F48020086000BF606890B1FFF798FDA6
:100BE000054606E0FFF794FD401B642801D9032069
:100BF0009EE7CC4808380068C0F340400028F1D098
:100C000011E0FFF785FD054606E0FFF781FD401B7B
:100C1000642801D903208BE7C24808380068C0F374
:100C200040400028F1D1207800F0020002285FD176
:100C3000BC48006800F00C0058B1BA48006800F0E9
:100C40000C0008281CD1B748001F006800F4800081
:100C5000B0B9B44808380068C0F3400020B1E0687B
:100C6000012801D0012063E7AE480838006820F071
:100C7000F800216940EAC100AA490839086037E054
:100C8000E06800B30120A8490860FFF741FD054670
:100C900006E0FFF73DFD401B022801D9032047E78E
:100CA000A04808380068C0F340000028F1D09D48F3
:100CB0000838006820F0F800216940EAC10099492D
:100CC0000839086014E0002097490860FFF720FD0C
:100CD000054606E0FFF71CFD401B022801D9032052
:100CE00026E7904808380068C0F340000028F1D19A
:100CF000207800F0080008282CD16069A8B10120F4
:100D00008A490860FFF704FD054606E0FFF700FD8D
:100D1000401B022801D903200AE782486C30006892
:100D2000C0F340000028F1D014E000207F490860A3
:100D3000FFF7EEFC054606E0FFF7EAFC401B022841
:100D400001D90320F4E677486C300068C0F3400016
:100D50000028F1D1207800F00400042870D1002789
:100D600070483830006800F0805090B900BF002013
:100D700000906C483830006840F080506949383144
:100D800008600846006800F08050009000BF00BF77
:100D900001276748006800F48070B0B964480068B3
:100DA00040F4807062490860FFF7B2FC054606E037
:100DB000FFF7AEFC401B022801D90320B8E65C48CF
:100DC000006800F480700028F2D000BFA0680128FD
:100DD00008D154486830006840F00100514968313A
:100DE00008601DE0A06805280DD14E4868300068F5
:100DF00040F004004B49683108600846006840F044
:100E0000010008600CE047486830006820F00100ED
:100E10004449683108600846006820F00400086012
:100E200000BFA068A8B1FFF773FC054609E0FFF713
:100E30006FFC401B41F28831884202D9032077E6DB
:100E400026E0384868300068C0F340000028EED043
:100E500013E0FFF75DFC054608E0FFF759FC401B77
:100E600041F28831884201D9032061E62D4868307B
:100E70000068C0F340000028EFD1012F07D12948B6
:100E80003830006820F0805026493831086000BFB3
:100E9000A069002845D02348006800F00C0008280D
:100EA0005DD0A069022845D100201F490866FFF7E0
:100EB0002FFC054606E0FFF72BFC401B022801D95A
:100EC000032035E6174808380068C0F34060002862
:100ED000F1D1D4E907010843616A40EA8111012296
:100EE000A06AC2EB500041EA00412C20005D41EABB
:100EF00000600C49091F086001200B490866FFF7D4
:100F000007FC054606E0FFF703FC401B022801D959
:100F100003200DE6034808380068C0F3406000284D
:100F2000F1D049E00838024000004742800E4742B5
:100F300000700040002021490866FFF7E9FB0546E4
:100F400006E0FFF7E5FB401B022801D90320EFE58F
:100F50001B480068C0F340600028F2D12CE0A06973
:100F6000012800D1E4E51648001D0668A0690128A3
:100F700020D006F48001E06981421BD106F03F01D8
:100F8000206A814216D147F6C0703040616AB0EBEA
:100F9000811F0FD106F440310122A06AC2EB50003C
:100FA000B1EB004F06D106F070612C20005DB1EB73
:100FB000006F01D00120BBE50020B9E500004742E9
:100FC0000038024010B504460CB9012010BD606A1B
:100FD00038B96068B0F5827F00D105E00021E16199
:100FE00002E00021216161610021A16294F85100B9
:100FF00028B9002084F85000204600F047F802206D
:1010000084F851002068006820F0400021680860E2
:10101000A08800F48270218901F404410843A18969
:1010200001F400610843217C01F002010843217DA5
:1010300001F001010843218B01F400710843217F75
:1010400001F0380108432021095D01F080010843C7
:10105000218D01F400510843216808600421A06932
:1010600001EA104094F8241001F0100108432168AF
:1010700048602068C06920F400602168C8610020D1
:101080006065012084F8510000209FE710B586B00C
:101090000446142101A8FFF78AF92A4920688842EA
:1010A0004DD100BF002000902748006840F48040E8
:1010B000254908600846006800F48040009000BFA1
:1010C00000BF00BF002000901F481038006840F0AB
:1010D00004001D49103908600846006800F004004B
:1010E000009000BF00BF00BF0020009008460068CD
:1010F00040F0020008600846006800F0020000901E
:1011000000BF00BF0C20019002200290002003903D
:10111000032004900520059001A90C48FFF7F8F979
:101120004FF4806001900220029000200390032081
:1011300004900520059001A90548FFF7E9F906B0DC
:1011400010BD000000380040403802400008024056
:10115000000402402DE9F8430446884616461D4621
:101160004FF000096068B0F5827F0DD1A06858B9D2
:10117000042084F8510033464246414620460095FB
:1011800000F077F9BDE8F88300BF94F8500001281B
:1011900001D10220F6E7012084F8500000BFFFF7DC
:1011A000B7FA074694F85100012802D04FF002091F
:1011B0007EE0B8F1000F00D016B94FF0010977E0DA
:1011C000042084F8510000206065C4F83880A687A8
:1011D000E6872063A086E08620646064A068B0F59E
:1011E000004F0BD12068006820F0400021680860A3
:1011F0002068006820F4804021680860206800684A
:1012000000F04000402805D02068006840F0400011
:1012100021680860E068F8B91AE02068806800F08A
:10122000010050B12068007BA16B0870A06B401CCE
:10123000A063E08F401EE0870AE0FFF769FAC01B59
:10124000A84201D3681C00B915B94FF003092FE07B
:10125000E08F0028E1D11EE01AE02068806800F0ED
:10126000010050B12068C068A16B0880A06B801C91
:10127000A063E08F401EE0870AE0FFF749FAC01B39
:10128000A84201D3681C00B915B94FF003090FE05B
:10129000E08F0028E1D13A462946204600F051FB74
:1012A00008B120206065606D08B14FF0010900BFF2
:1012B000012084F8510000BF002084F8500000BFD6
:1012C00048465FE72DE9F84F0446884616461D4616
:1012D0004FF0000A00BF94F85000012802D102200C
:1012E000BDE8F88F012084F8500000BFFFF710FA26
:1012F0000746B14694F85100012802D04FF0020A87
:10130000ADE0B8F1000F00D016B94FF0010AA6E029
:10131000032084F8510000206065C4F83080A68660
:10132000E686A063A087E08760642064A068B0F5CB
:10133000004F0BD12068006820F040002168086051
:101340002068006840F480402168086020680068D8
:1013500000F04000402805D02068006840F04000C0
:1013600021680860E068B0F5006F2FD1606810B1A7
:10137000B9F1010F09D1206B00882168C860206B8A
:10138000801C2063E08E401EE0861BE020688068A1
:1013900000F0020002280AD1206B00882168C86092
:1013A000206B801C2063E08E401EE0860AE0FFF781
:1013B000AFF9C01BA84201D3681C00B915B94FF0A2
:1013C000030A4CE0E08E0028E0D12EE0606810B106
:1013D000B9F1010F09D1206B007821680873206BE7
:1013E000401C2063E08E401EE0861BE02068806881
:1013F00000F0020002280AD1206B007821680873EF
:10140000206B401C2063E08E401EE0860AE0FFF760
:101410007FF9C01BA84201D3681C00B915B94FF071
:10142000030A1CE0E08E0028E0D13A462946204617
:1014300000F0D2FA08B120206065A06850B900BF62
:10144000002000902068C0680090206880680090AC
:1014500000BF00BF606D08B14FF0010A00BF01205E
:1014600084F8510000BF002084F8500000BF5046AF
:1014700036E72DE9FF5F0446884691461D460E9EDD
:10148000012002900020019000BF94F85000012834
:1014900003D1022004B0BDE8F09F012084F8500081
:1014A00000BFFFF735F9074694F851B06068039024
:1014B000AA46BBF1010F0BD00398B0F5827F04D18F
:1014C000A06810B9BBF1040F02D002200190DBE04C
:1014D000B8F1000F03D0B9F1000F00D015B9012009
:1014E0000190D1E094F85100042802D0052084F83E
:1014F000510000206065C4F83890E587A587C4F8DE
:101500003080E586A586206460642068006800F06D
:101510004000402805D02068006840F04000216865
:101520000860E068B0F5006F4AD1606810B1BAF1A8
:10153000010F09D1206B00882168C860206B801CD6
:101540002063E08E401EE08633E02068806800F073
:101550000200022810D1E08E70B1029801280BD150
:10156000206B00882168C860206B801C2063E08E9F
:10157000401EE086002002902068806800F0010094
:1015800068B1E08F58B12068C068A16B0880A06B7B
:10159000801CA063E08F401EE08701200290FFF7CF
:1015A000B7F8C01BB04204D3701C10B103200190E7
:1015B0006AE0E08E0028C8D1E08F0028C5D14AE05B
:1015C000606810B1BAF1010F09D1206B0078216871
:1015D0000873206B401C2063E08E401EE08634E0E0
:1015E0002068806800F00200022810D1E08E70B1FF
:1015F000029801280BD1206B007821680873206BBA
:10160000401C2063E08E401EE0860020029020688F
:10161000806800F0010068B1E08F58B12068C068B0
:10162000A16B0870A06B401CA063E08F401EE08798
:1016300001200290FFF76CF8C01BB04201D3701C70
:1016400000B916B9032001901EE0E08E0028C7D132
:10165000E08F0028C4D13A463146204600F0BCF95C
:1016600020B101200190202060650DE0A06850B9F4
:1016700000BF002000902068C0680090206880684B
:10168000009000BF00BF00BF012084F8510000BFE0
:10169000002084F8500000BF0198FBE670B50446B6
:1016A0002546681EB0F1807F01D301200FE0681E3F
:1016B0004FF0E02148610F214FF0FF3000F0FEFEB7
:1016C00000204FF0E021886107200861002070BDF4
:1016D00010B504460CB9012010BDA06900B100E0AE
:1016E00000BF94F83D0028B9002084F83C00204653
:1016F00000F028F8242084F83D002068C06820F419
:1017000000502168C860204600F072FA2068006925
:1017100020F49040216808612068406920F02A0088
:10172000216848612068C06840F400502168C860A2
:1017300000202064202084F83D0084F83E00002032
:10174000CAE7000010B586B00446142101A8FEF7D0
:101750002EFE1B492068884230D100BF0020009037
:101760001848006840F010001649086008460068F4
:1017700000F01000009000BF00BF00BF00200090EC
:1017800010481438006840F001000E491439086010
:101790000846006800F00100009000BF00BF4FF451
:1017A000C06001900220029000200390032004906A
:1017B0000720059001A90448FEF7AAFE06B010BD57
:1017C00000100140443802400000024000BFFEE724
:1017D00010B503490348FEF754FE0349087010BDD5
:1017E00095000020800000209400002000B587B004
:1017F000142102A8FEF7DBFD00BF002001902D4858
:10180000006840F010002B4908600846006800F0AE
:101810001000019000BF00BF00BF002001900846EB
:10182000006840F0800008600846006800F0800012
:10183000019000BF00BF00BF002001900846006873
:1018400040F0040008600846006800F004000190C1
:1018500000BF00BF00BF002001900846006840F0B4
:10186000020008600846006800F00200019000BF16
:1018700000BF00BF002001900846006840F0010052
:1018800008600846006800F00100019000BF00BF3A
:10189000002208210848FEF735FF082002900120A9
:1018A000039000200490059002A90348FEF730FE43
:1018B00007B000BD303802400010024010B50E489D
:1018C0000E4908604FF48270486000210B48816027
:1018D000C160016141614FF4007181610021C1610A
:1018E0000162416281620A21C162FFF76BFB08B1AC
:1018F000FEF7C4FD10BD000000380040400100208C
:1019000010B50B480B4908604FF4E13048600021E6
:1019100008488160C16001610C2141610021816141
:10192000C161FFF7D5FE08B1FEF7A8FD10BD0000AC
:10193000001001409801002000BFFEE700BFFEE755
:101940007047F8B504460E4615466068B0F5827FCC
:101950000DD1A068B0F5004F03D0A068B0F5806F3E
:1019600005D12068006820F04000216808606068A8
:10197000B0F5827F1FD1A068B0F5806F0DD03346DF
:10198000002280212046009500F05CF808B3606DCD
:1019900040F0200060650320F8BD3346002201219D
:1019A0002046009500F04EF898B1606D40F02000A0
:1019B00060650320F0E733460022012120460095B0
:1019C00000F040F828B1606D40F020006065032011
:1019D000E2E70020E0E700007CB504460D4616462D
:1019E000164800681821B0FBF1F01549B0FBF1F082
:1019F0004FF47A71484301906068B0F5827F0DD151
:101A00002B46002280212046009600F01BF898B15A
:101A1000606D40F02000606503207CBD00BF019830
:101A200000B908E00198401E019020688068C0F36A
:101A3000C0100028F3D100BF0020EEE7A80000206E
:101A400040420F002DE9F84F04460D4690461E46D1
:101A5000DDF82890FEF75CFEA0EB0900371AFEF7D0
:101A600057FE82462C480068C0F3CB307843009084
:101A700045E0701C002842D0FEF74AFEA0EB0A00A9
:101A8000B84200D2A7BB2068406820F0E00021687F
:101A900048606068B0F5827F0DD1A068B0F5004F56
:101AA00003D0A068B0F5806F05D12068006820F0F1
:101AB000400021680860A06AB0F5005F0DD100BF4A
:101AC0002068006820F400502168086020680068E1
:101AD00040F400502168086000BF012084F85100E4
:101AE00000BF002084F8500000BF0320BDE8F88F3D
:101AF000FFE7009800B900270098401E009020687A
:101B000080682840A84201D1012000E00020404523
:101B1000AFD10020EAE70000A8000020704710B510
:101B2000FEF7FCFD10BD000000B593B0302107A802
:101B3000FEF73DFC142102A8FEF739FC00BF00208F
:101B400001902448006840F080502249086008460F
:101B5000006800F08050019000BF00BF00BF00206F
:101B600001901D48006840F480401B490860084609
:101B7000006800F48040019000BF00BF0120079082
:101B80000004089002200D9041050E910F210F9145
:101B900090211091022111910421129107A8FEF7C2
:101BA000C3FF08B1FEF76AFC0F20029002200390E9
:101BB000002004904FF4A05005904FF48050069000
:101BC000032102A8FEF770FE08B1FEF757FC13B020
:101BD00000BD00004038024000700040034800682B
:101BE00040F47000014908607047000088ED00E093
:101BF0002DE9F84F04462068006920F44050E16860
:101C00000843216808612169A068084361690843A5
:101C1000E169084300902068C06849F20C6188437C
:101C2000009908432168C8602068406920F440702A
:101C3000A16908432168486176492068884203D039
:101C400075492068884203D1FEF706FF814602E00D
:101C5000FEF7F2FE8146E069B0F5004F6CD102203C
:101C60006168A0FB015003461920A9FB00700146E2
:101C70002A463846FEF7F8FA6421B0FBF1F04FEA45
:101C8000001A02206168A0FB01510B461920A9FB34
:101C900000712A463846FEF7E7FA8346022061685B
:101CA000A0FB015003461920A9FB00712A463846C3
:101CB000FEF7DAFA6421B0FBF1F000EBC00101EBB2
:101CC0000010ABEB8000322101EBC0006421B0FBBF
:101CD000F1F000F0F8000AEB400A02206168A0FB76
:101CE000015003461920A9FB007001462A463846D8
:101CF000FEF7BAFA834602206168A0FB0150034652
:101D00001920A9FB00712A463846FEF7ADFA642176
:101D1000B0FBF1F000EBC00101EB0010ABEB800079
:101D2000322101EBC0006421B0FBF1F000F00700AC
:101D30005044216888606AE004206168A0FB01507B
:101D400003461920A9FB007001462A463846FEF7D3
:101D50008BFA824604206168A0FB015003461920DB
:101D6000A9FB007001462A463846FEF77DFA642139
:101D7000B0FBF1F000EBC00101EB0010AAEB80001A
:101D8000322101EB00106421B0FBF1F000F0F00A09
:101D900004206168A0FB017003461920A9FB0051D3
:101DA0003A462846FEF760FA6421B0FBF1F00AEBF0
:101DB000001A04206168A0FB01510B461920A9FB01
:101DC00000712A463846FEF74FFA834604206168C0
:101DD000A0FB015003461920A9FB007001462A46CA
:101DE0003846FEF741FA6421B0FBF1F000EBC00188
:101DF00001EB0010ABEB8000322101EB00106421FD
:101E0000B0FBF1F000F00F00504421688860BDE89D
:101E1000F88F00000010014000140140014601202D
:101E2000024A107010460078704700007C000020C5
:101E300010B50346012010BD10B50446002010BDAA
:101E400001460120024A10701046007870470000D9
:101E50007C00002010B50446002010BD00BFFEE746
:101E600010B5044602E00120FEF73EFB1E4890F844
:101E700027000128F7D001201B4981F8270000F036
:101E800049FA19480069444300F06CFA002208211D
:101E90001648FEF737FC14480078092806DB212095
:101EA00000F028FA200E00F025FA02E0202000F0D1
:101EB00021FAC4F3074000F01DFAC4F3072000F034
:101EC00019FAE0B200F016FA012208210748FEF7DD
:101ED00019FC00F01FFA0120FEF706FB0020024962
:101EE00081F8270010BD00004032002000100240A1
:101EF00010B501204B4981F8270002E00120FEF7D0
:101F0000F3FAFEF705FC6428F8D3012208214648BD
:101F1000FEF7F8FB6420FEF7E7FA00F0CBF8044682
:101F2000E0B21138102847D2DFE800F0403A342EF2
:101F300028221C160F464646464646080A203949BE
:101F400008704FF48060C8613BE009203549087093
:101F50004FF40070C86134E0082032490870400135
:101F6000C8612EE007202F4908708020C86128E052
:101F700006202C4908704020C86122E0052029492C
:101F800008702020C8611CE0042026490870102039
:101F9000C86116E00320234908700820C86110E0DA
:101FA0000220204908700420C8610AE001201D4970
:101FB00008700220C86104E000201A4981F8270057
:101FC00010BD00BF4FF480701649488100010861C0
:101FD0000846C069000148610846406909694843EC
:101FE00010494989B0FBF1F00E49C8600846006904
:101FF000000188610846406909694843800A094927
:10200000086200F043F9012000F008F9022000F016
:1020100005F9032000F002F90020024981F82700A9
:102020000120CDE7403200200010024070B5054687
:102030000C4602E00120FEF757FA1C4890F82700F2
:102040000128F7D00120194981F827000022082132
:102050001748FEF757FB15480078092806DB0C20C7
:1020600000F048F9200E00F045F902E00B2000F0E6
:1020700041F9C4F3074000F03DF9C4F3072000F034
:1020800039F9E0B200F036F9002000F033F9A5206C
:1020900000F030F92870012208210548FEF732FBD4
:1020A0000020024981F8270070BD00004032002066
:1020B000001002402DE9F0410024002500260027F1
:1020C000002208210F48FEF71DFB9F2000F012F9A7
:1020D000A52000F00FF90546A52000F00BF90646F3
:1020E000A52000F007F90746012208210548FEF760
:1020F00009FB280440EA062040EA07042046BDE820
:10210000F0810000001002402DE9F04107460C4626
:1021100016461D4602E00120FEF7E6F9284890F831
:1021200027000128F7D00120254981F8270008461B
:102130004089A84200D30DB921484589701920492A
:102140004989884202D91E484089851B1C4840891C
:1021500004FB0064002208211A48FEF7D3FA18484D
:102160000078092806DB0C2000F0C4F8200E00F0EF
:10217000C1F802E00B2000F0BDF8C4F3074000F006
:10218000B9F8C4F3072000F0B5F8E0B200F0B2F8F7
:10219000002000F0AFF8AAB2642339460A48FEF7DF
:1021A000D9FF012208210748FEF7ACFA0120FEF70B
:1021B0009BF90020024981F82700BDE8F08100006A
:1021C0004032002000100240400100202DE9F0477D
:1021D00007468846144610480069A04200D30CB94F
:1021E0000D4804694FF000092646404600F076F895
:1021F000054600BF33464A4629463846FFF784FF66
:102200006D1C05484089361A034840890744002E52
:10221000F0DCBDE8F08700004032002070B50546D4
:102220000024002208211748FEF76CFA012D0AD17C
:10223000052000F05FF8A52000F05CF80446124885
:1022400080F8244016E0022D0AD1352000F052F823
:10225000A52000F04FF804460B4880F8254009E01F
:10226000152000F047F8A52000F044F80446064881
:1022700080F82640012208210248FEF743FA204652
:1022800070BD0000001002404032002010B5002256
:1022900008211048FEF736FA4B2000F02BF80024F6
:1022A00004E0A52000F026F8601CC4B2042CF8DB82
:1022B000002406E0A52000F01DF807490855601C21
:1022C000C4B2082CF6DB012208210248FEF71AFAF4
:1022D00010BD0000001002404132002001460448B9
:1022E00000694843024A5289B0FBF2F0704700008F
:1022F0004032002001B582B06420012301AA02A966
:1023000000900348FFF7B5F89DF804000EBD0000EB
:102310004001002010B50120FEF7E6F80022082158
:102320000E48FEF7EFF90520FFF7E4FF00BFA520F8
:10233000FFF7E0FF0A4981F824000120FEF7D4F8F6
:10234000074890F8240000F001000028EFD1012296
:1023500008210248FEF7D6F910BD00000010024027
:102360004032002010B5002208210748FEF7CAF9C4
:102370000620FFF7BFFF012208210348FEF7C2F93C
:102380000120FEF7B1F810BD001002402DE9F04128
:1023900007460C4615461E4602E00120FEF7A4F84B
:1023A0002A4890F827000128F7D00120274981F812
:1023B000270070194989884200D816B923484089F6
:1023C000461BA81921494989884202D91F484089DA
:1023D000461BFFF79FFFFFF7C5FF002208211C489F
:1023E000FEF790F91948408904FB0054174800781B
:1023F000092806DB1220FFF77DFF200EFFF77AFF8A
:1024000002E00220FFF776FFC4F30740FFF772FFF8
:10241000C4F30720FFF76EFFE0B2FFF76BFFB2B225
:10242000642339460B48FEF74DFF01220821084876
:10243000FEF768F9FFF76EFF0120FEF755F8002060
:10244000024981F82700BDE8F081000040320020F9
:1024500000100240400100202DE9F0470746884661
:10246000144611480069A04200D30CB90E48046913
:102470004FF0000926464046FFF730FF054600BFF3
:1024800033464A4629463846FFF780FF6D1C06480A
:102490004089361A0448408907444FF00009002E4D
:1024A000EEDCBDE8F0870000403200200248006802
:1024B000C0F30220704700000CED00E010B50028CA
:1024C00004DB0A07130E054A135406E00A07140E2C
:1024D000034A00F00F031B1FD45410BD00E400E0BA
:1024E00018ED00E010B50448006818B10248006813
:1024F000804710BD0020FCE7B8000020024A1060B1
:10250000024A116070470000B8000020BC000020A3
:102510000FB42DE9F8435148006828B14FF0FF315E
:1025200001204E4A1268904709A800907FE0252CB0
:1025300003D0E0B200F094F879E0089F38782528BD
:1025400006D10898401C0890252000F089F86EE01C
:10255000089810F8014B08900020814680460646F6
:102560000546302C05D1089810F8014B08904FF023
:1025700001080AE0A4F1300005EB850100EB410001
:102580000544089810F8014B0890302C01DB392CD9
:10259000F0DDB8F1000F00D06D426C2C05D14FF08A
:1025A0000109089810F8014B089004B946E0732C13
:1025B00005D1009901C9009102F0CAFA37E0632CF5
:1025C00007D1009911F8042BD0B2009100F048F81F
:1025D0002DE0752C00D10A26642C01D16FF009067C
:1025E000582C01D0782C00D11026622C00D1022664
:1025F00006B923E0B9F1000F07D0009901C92A46B6
:102600000091314600F016FA10E0002E07DD009927
:1026100001C92A460091314600F00CFA06E0009903
:1026200001C92A460091314600F004FA00BF08981B
:1026300010F8011B0C1E08907FF479AF00BF00203A
:1026400000900648006820B100210846034A12683D
:102650009047BDE8F8035DF814FB0000BC000020C3
:1026600031B500240BE0074850F8240028B1054894
:1026700050F82420012168469047601CC4B2042C05
:10268000F1DB38BD9432002070B50446154800686F
:1026900028B14FF0FF310120124A126890470025FF
:1026A000B4B1002007E0104951F82010A14200D138
:1026B0000125411CC8B20428F5DB4DB90A480B4975
:1026C000097840F8214009480078401C0749087003
:1026D0000448006820B100210846024A1268904769
:1026E00070BD0000BC00002094320020B400002027
:1026F00070B504460D460020E070401E2063294658
:10270000204602F03BF908B1042070BD04F23220EB
:1027100001F069FF4AF65521884201D00320F4E711
:1027200094F83400E92807D094F83400EB2817D146
:102730003620005D902813D104F16A0001F047FFB4
:1027400020F07F400749884201D10020DDE704F1F5
:10275000860001F03CFF0449884201D10020D4E703
:102760000220D2E74641540046415433024600E07D
:10277000521C107810B110788842F9D11078704747
:1027800030B502460B460020044601461CE01A48BC
:1027900000EB01100068A8B1174800EB01100068B9
:1027A0001568A8420FD1144800EB011040689568E5
:1027B000A84208D1104800EB011080685569A84272
:1027C00001D103E00124491C0229E0D300BF022902
:1027D00006D10CB9022B01D1002030BD1220FCE73C
:1027E00033B9054800EB01108089B0F5807F01D135
:1027F0001020F2E70020F0E76832002001460020B8
:102800000BE0074A02EB001212688A4204D1002250
:10281000034B03EB00131A60401C0228F1D37047EE
:1028200068320020F0B503460D461E68D86A021DC6
:10283000B089B5FBF0F07789B0FBF7F400BF02CAAE
:1028400009B90020F0BD8C4200D202E0641A121DCA
:10285000F5E700BF10682044F4E70246891E90693E
:10286000801E884201D8002070475389D06A01FB3E
:102870000300F9E72DE9F04782468946DAF800407F
:10288000B9F1000F06D1276917B1A069B84215D870
:10289000012713E04946504601F069FD0646022E25
:1028A00002D20120BDE8F087701C08B93046F9E774
:1028B000A069B04201D93046F4E74F463D4600BF1B
:1028C0006D1CA069A84204D80225BD4201D9002090
:1028D000E8E72946504601F04AFD064606B909E0F8
:1028E000012E01D0701C08B93046DBE7BD42E7D1AC
:1028F0000020D7E700BF4FF0FF322946204602F004
:102900005FF88046B8F1000F08D1B9F1000F05D08B
:102910002A464946204602F053F88046B8F1000F97
:102920000DD12561D4E90510801E814202D860696D
:10293000401E6061207940F00100207107E0B8F18D
:10294000010F02D14FF0FF3000E00120054628467C
:10295000A8E700002DE9F05F82468846D8F80070AD
:102960000AF124050B222021284601F0FEFF002059
:10297000814606464FF0080B00BF3046761C3C5C93
:10298000202C00DC36E02F2C01D05C2C08D100E09C
:10299000761CB85D2F28FBD0B85D5C28F8D029E004
:1029A0002E2C01D0D9450CD3BBF10B0F01D02E2C0E
:1029B00002D00620BDE8F09F4FF008094FF00B0B46
:1029C000DBE7802C03DBA4F1800015490C5C214679
:1029D00014A0FFF7CBFE08B10620EBE7612C04DB67
:1029E0007A2C02DCA4F12000C4B2484609F10109A6
:1029F0002C54C2E700BFB819C8F80000B9F1000FA5
:102A000001D10620D6E72878E52801D105202870D5
:102A1000202C01DC042000E00020E8720020C9E73F
:102A2000FA4D0008222A2B2C3A3B3C3D3E3F5B5D91
:102A30007C7F00002DE9F04F87B007460D46164613
:102A40004FF0000B20200690002415B907B0BDE818
:102A5000F08F002D05DA6D42002F02DA7F424FF031
:102A60002D0BB94605F0FF0A002E02DA764230201F
:102A70000690142E00DDE9E700BFB9FBFAF00AFB6F
:102A8000109000F0FF08B8F10A0F03DB08F107000F
:102A900000F0FF0808F1300000F0FF082046611C3C
:102AA000CCB201A901F80080B9FBFAF9B9F1000F25
:102AB000E3D1BBF1000F05D02046611CCCB201A9C7
:102AC00001F800B005E02146621CD4B201AA0698C4
:102AD0005054B442F7DB00BF611EC9B20C4601AAD4
:102AE000505CFFF7BDFD002CF6D100BFAEE7000043
:102AF00010B50246531E1A46022B17D20C4B03EB9D
:102B000002139989B1F5807F00D10021002901DDF0
:102B10004B1E99B2064B03EB0213998121B9002396
:102B2000034C04EB02142360002000E0022010BDDF
:102B3000683200202DE9F04104460E46D4F80080AA
:102B40000021204600F007F90546EDB9002700BF37
:102B50004046E16901F012FF054605B113E0206A25
:102B60000078E52802D0206A007820B9781C074652
:102B7000B04201D107E000270121204600F040F8D3
:102B80000546002DE4D000BF042D00D107252846BE
:102B9000BDE8F0812DE9F041044627680021204678
:102BA00000F0D9F8054615B12846BDE8F08100BF10
:102BB0003846E16901F0E2FE054605B11DE0206AF4
:102BC00006780EB9042518E0206AC07A00F03F00AC
:102BD000A071206AC07A00F0080038B90B2204F115
:102BE0002401206A01F0A2FE00B906E0002120467F
:102BF00000F006F80546002DDAD000BF2846D4E7DD
:102C00002DE9F047054689462C68686900F12007E0
:102C1000E86910B1B7F5001F02D30420BDE8F087C2
:102C2000A089B7FBF0F100FB1170002869D1E869B9
:102C3000401CE861A86938B92089B0EB571F60D8FB
:102C40000020E8610420E9E7A089B7FBF0F0618982
:102C5000491E0840002854D12846A96901F087FB85
:102C60000646012E01D80220D8E7701C08B90120C1
:102C7000D4E7A069B0423ED8B9F1000F03D10020DB
:102C8000E8610420CAE72846A969FFF7F3FD064674
:102C90000EB90720C2E7012E01D10220BEE7701C49
:102CA00008B90120BAE7204602F034F808B1012043
:102CB000B4E7A289002104F1340001F056FE4FF080
:102CC000000831462046FFF7C8FD20630CE00120D4
:102CD000E070204602F01EF808B101209EE708F1DE
:102CE0000108206B401C206360894045EFD8206BB1
:102CF000A0EB08002063AE6131462046FFF7ADFD32
:102D0000E8616F61A089B7FBF0F100FB117104F17C
:102D1000340008442862002080E770B50446266825
:102D200001212046FFF706FF054695B93046E169C7
:102D300001F024FE054665B920220021206A01F039
:102D400014FE0B2204F12401206A01F001FE01208F
:102D5000F070284670BD2DE9F04104460E46256806
:102D6000B6F5001F02D206F01F0010B10220BDE828
:102D7000F0816661A7681FB92878032800DBAF6A75
:102D800047B92889B0EB561F01D80220EFE7A86A9F
:102D9000E0611DE06889A98900FB01F811E039466E
:102DA000204601F0E4FA0746781C08B90120DEE766
:102DB000022F02D3A869B84201D80220D7E7A6EBB8
:102DC00008064645EBD239462846FFF746FDE06146
:102DD000A761E06908B90220C9E7A889B6FBF0F04D
:102DE000E1690844E061A889B6FBF0F100FB1161DC
:102DF00005F13400084420620020B8E770B50446AD
:102E000000250B48005D10B9012009490855FFF75E
:102E10006FF848B10025FFF765FB064605A231466D
:102E200005A0FFF775FB00E00125284670BD0000F6
:102E300088320020000000001B5B33326D3C25759A
:102E40003E205B495D202573203A20646961736BE5
:102E500020696E6974206F6B200D0A1B5B306D005A
:102E60002DE9F04180460E46154636B1012E20D0A0
:102E7000022E11D0032E29D101E0002428E04FF4C6
:102E800080302860FFF72EFB074613A2394613A0B7
:102E9000FFF73EFB00241BE04FF480502860FFF753
:102EA00021FB07460CA2394617A0FFF731FB00248F
:102EB0000EE04FF400602860FFF714FB074606A2FF
:102EC00039461CA0FFF724FB002401E0042400BFC6
:102ED00000BF2046BDE8F081000000001B5B3332DC
:102EE0006D3C25753E205B495D202573203A2067A7
:102EF000657420626C6F636B2073697A65200D0ABC
:102F00001B5B306D000000001B5B33326D3C257590
:102F10003E205B495D202573203A2067657420734D
:102F20006563746F722073697A65200D0A1B5B30CC
:102F30006D0000001B5B33326D3C25753E205B4904
:102F40005D202573203A2067657420736563746F74
:102F50007220636F756E74200D0A1B5B306D00006C
:102F60002DE9F04180460C4615461E46002709E033
:102F70004FF4805229462046FFF728F96D1C04F5CE
:102F800080547F1CB742F3D30020BDE8F0810000DD
:102F900070B504464CB9FFF7A5FA054604A22946C8
:102FA00004A0FFF7B5FA002070BD0120FCE7000087
:102FB000000000001B5B33326D3C25753E205B49F1
:102FC0005D202573203A204449534B2053544154EB
:102FD0005553204953204F4B0D0A1B5B306D0000A9
:102FE0002DE9F047C2B081460E4614461F46002028
:102FF0004190804648E02046FEF732FF002514E06D
:1030000005EB043141A8FFF711F89DF80401FF28F2
:103010000AD0FFF767FA824623461EA251461EA039
:10302000FFF776FA00BFFEE76D1CB5F5805FE7DBC2
:103030004FF4805221463046FFF70EFA00251CE07F
:10304000200305EB10214FF48073002201A8FFF745
:103050005BF806EB05204FF4807201A9FDF77BF9C0
:1030600050B1FFF73FFA824623460AA2514617A005
:10307000FFF74EFA00BFFEE76D1C0F2DE0DB641C6E
:1030800006F5805608F10108B845B4D3002042B0D7
:10309000BDE8F087000000001B5B33326D3C2575F6
:1030A0003E205B495D202573203A206572726F7265
:1030B00020696E20657261736520736563746F7239
:1030C0002025640D0A1B5B306D0000001B5B333252
:1030D0006D3C25753E205B495D202573203A2065B7
:1030E00072726F7220696E207772697465207365E1
:1030F00063746F72202564200D0A1B5B306D000025
:10310000002100E0491C022905D2064800EB01100D
:1031100000680028F6D1022901D001207047002064
:10312000FCE700006832002038B50546284600F06C
:10313000BFFD044664B96946284601F02FFE0446E7
:1031400034B92869FFF7D4FC04460CB90020286084
:10315000204638BD2DE9FF4F95B017460120149049
:103160004002139015A801F09DF9029002980028E2
:1031700003DA0B2019B0BDE8F08FFB49029851F833
:10318000200028B10021F84A029852F8200001706E
:103190000298C0B21190002010901198FFF72EFEF7
:1031A0000190019800F0010008B10320E2E70198C6
:1031B00000F0040008B10A20DCE70CAA03211198F2
:1031C000FFF74EFE50B90C9840B10C98B0F5004F87
:1031D00004D80C98401E0C99084008B101200C90AE
:1031E0000FAA02211198FFF73BFE08B10120C1E7A9
:1031F000BDF83C00B0F5805F0BDCBDF83C00B0F5DD
:10320000007F06DBBDF83C00401EBDF83C100840C6
:1032100008B10120AEE71FB1BDF83C00874205D3DD
:10322000B7F1807F02D8781E384008B11320A1E79B
:10323000BDF83C00B7FBF0F7189CBDF83C10229895
:10324000B0FBF1F00D90BDF83C100D9848430E9086
:103250000E9808B90E208DE700BF07AA012111982A
:10326000FFF7FEFD08B1012084E7169800F0080082
:1032700008B1002000E03F2083460798584501D25E
:103280000E2077E70798A0EB0B000790079880289F
:1032900001D20E206EE700BF00BF802F01D913209E
:1032A00068E7169800F0020050B1169800F0070089
:1032B000022803D0169800F0010008B9032607E0A1
:1032C000169800F0010008B9132053E7022600BF4A
:1032D00000BF00BF3D46032E2FD1A5B907984FEA86
:1032E000504900200390012503E00398401C0390FF
:1032F0006D009E49039831F8100020B1039831F811
:1033000010004845F1D90798B0FBF5F8082000EB0C
:103310008800BDF83C100844401EB0FBF1F0059059
:1033200020200690002004904FF6F570804502D9C9
:103330008F4880453BD90E201CE7A5B907984FEA76
:10334000103900200390012503E00398401C0390EE
:103350006D008849039831F8100020B1039831F8C6
:1033600010004845F1D90798B0FBF5F840F6F57024
:10337000804503D9042000EB480906E0012608EB4C
:103380004800401C032101EB5009BDF83C004844B3
:10339000401EBDF83C10B0FBF1F0059001200690F6
:1033A000BDF83C004FF48041B1FBF0F0049006986A
:1033B00058440990099905980144049808440890D4
:1033C0000C9908980844401E491E20EA01010898FB
:1033D000A1EB0009032E06D10698484406900998EF
:1033E0004844099002E0059848440590089800EB8D
:1033F0000510A0EB0B000799884201D90E20B9E611
:10340000DDE90601091A0598091A0498081AB0FBA3
:10341000F5F8032E0AD14FF6F570804506D81FB98E
:103420006808071E00D031E00E20A3E6022E24D14A
:103430004FF6F570804514D92FB94020B0EB450FF9
:1034400001D36F0022E0169800F0020008B10326B5
:103450001CE027B968000746802800D816E00E2037
:1034600088E640F6F570804507D827B9680007461A
:10347000802800D80AE00E207CE6012E05D140F617
:10348000F570804501D90E2074E600E022E700BF08
:10349000BDF83C200021204601F067FA0B2236A13E
:1034A000204601F055FABDF83C1004F10B0001F084
:1034B000E3FB6573069881B204F10E0001F0DCFBBA
:1034C00001202074032E01D1002001E04FF4007090
:1034D000014604F1110001F0CFFB0798B0F5803FE1
:1034E00006D2079881B204F1130001F0C5FB04E095
:1034F00004F12000079901F0B3FBF82060753F212B
:1035000004F1180001F0B8FBFF2104F11A0001F0EA
:10351000B3FB594604F11C0001F0A2FB032E37D186
:1035200000F0BEFF0146009004F1430001F098FB5B
:1035300004F12400059901F093FB022104F12C0011
:1035400001F08EFB012104F1300001F095FB062112
:1035500004F1320001F090FB802084F84000292023
:1035600084F8420013220DE0AC000020884E0008D1
:10357000F5FFFF0F7A4E0008EBFE904D53444F537A
:10358000352E30009DA104F1470001F0E1F919E06A
:1035900000F086FF0146009004F1270001F060FB77
:1035A000059881B204F1160001F066FB802084F8D2
:1035B0002400292084F82600132295A104F12B0071
:1035C00001F0C6F94AF6552104F5FF7001F054FBED
:1035D00001235A4621461198FFF702FD08B1012048
:1035E000C8E5032E34D101230BF1060221461198C0
:1035F000FFF7F6FCBDF83C200021204601F0B5F9AC
:103600008849204601F02CFB874904F5F27001F04F
:1036100027FBA8F1010104F5F47001F021FB022160
:1036200004F5F67001F01CFB4AF6552104F5FF7015
:1036300001F022FB01230BF1070221461198FFF74D
:10364000CFFC01230BF1010221461198FFF7C8FCC2
:10365000002120460E9A01F088F909980B9000206D
:10366000039042E0032E0FD16FF00701204601F0D6
:10367000F7FA311F201D01F0F3FA6FF0704104F1E9
:10368000080001F0EDFA09E0012E01D1674801E0E0
:103690006FF007000146204601F0E2FA05980A9013
:1036A00000BF0D990A98884201D90D9800E00A9848
:1036B00081464B4621460B9A1198FFF791FC08B1C1
:1036C000012057E5BDF83C200021204601F04DF9CE
:1036D0000B9848440B900A98A0EB09000A900A98AE
:1036E0000028DED10398401C039003980028B9D02D
:1036F000032E01D1284600E004980A9000BF0D99DE
:103700000A98884201D90D9800E00A9881464B46F4
:1037100021460B9A1198FFF763FC08B1012029E5B7
:103720000B9848440B900A98A0EB09000A900A985D
:103730000028E4D100BF032E02D10C2012900CE02F
:103740000798B0F5803F02D30620129005E0022EC4
:1037500001D1042000E00120129000BF169800F073
:103760000800E8BBBDF83C200021204601F0FDF830
:103770004AF6552104F5FF7001F07EFA04F5DF7A70
:1037800000208AF8000001208AF801008AF802006F
:1037900000208AF8030012988AF804000798584419
:1037A00043F6C161B0FBF1F9FE208AF805003F2025
:1037B00040EA99008AF806008AF8079059460AF10B
:1037C000080001F04DFA0AF10C00079901F048FADF
:1037D0000123002221461198FFF702FC00B100E00E
:1037E00001E00120C6E4002211461198FFF738FBE2
:1037F00008B10120BEE40020BCE400004E4F204E82
:10380000414D4520202020464154333220202000C5
:103810004E4F204E414D452020202046415420202F
:10382000202020005252614172724161F8FFFF0076
:10383000F7B582B016460398019001A800F032FE59
:103840000546002D02DA0B2005B0F0BD0F4850F8F8
:10385000254024B12046FEF7D1FF002020700298B9
:1038600010B10020029908700849029841F825001B
:10387000029808B1012E01D00020E5E7002202A93C
:1038800003A800F077FB07463846DDE7AC000020D0
:103890002DE9F74F8EB0044616461CB9092011B029
:1038A000BDE8F08F06F03F06324601A90FA800F0F0
:1038B00061FB0546002D79D10198029002A80F996D
:1038C00000F0FEFC05468DB99DF8370000F0800041
:1038D00008B106250AE026F0010008B1012000E049
:1038E0000020014602A8FEF74BFF054606F01C002B
:1038F00000285CD06DB1042D08D1FFF701FC18B190
:1039000002A8FFF70AFA00E01220054646F0080672
:103910000AE09DF80E0000F0110008B1072503E051
:1039200006F0040000B10825002D51D106F0080072
:1039300000284DD000F0B4FD00900A9901F10E006E
:10394000009901F08DF90A9901F11600009901F032
:1039500087F920200A99C8720A99019800F024FE7C
:10396000814600220A99019801F068F90A9901F14B
:103970001C00002101F074F901200199C870B9F10F
:10398000000F25D00198006B00900022494602A844
:1039900001F0F7F80546DDB9DDE9001000F0EEFFB3
:1039A0000546A9F101000199086111E07BE07DB9AC
:1039B0009DF80E0000F0100008B1042508E006F0A4
:1039C000020028B19DF80E0000F0010000B10725AB
:1039D000BDB906F0080008B146F040060198006B3A
:1039E00060620A98A06226F0010008B1012000E0A0
:1039F0000020014602A800F079FD2061206900B98D
:103A00000225002D60D10A99019800F0CDFDA0603B
:103A10000A9901F11C0000F0DAFDE0600020E0628C
:103A2000019820600198C088A080267500206075EC
:103A30002062A0614FF48052002104F1300000F0B8
:103A400094FF06F0200070B3E06860B3E068A06106
:103A5000019840890199898900FB01FAA768D4F887
:103A60000C800CE03946204600F081FC0746012F0F
:103A700000D80225781C00B90125A8EB0A080DB969
:103A8000D045EFD8E76175B901988089B8FBF0F1AE
:103A900000FB118038B139460198FEF7DEFEB0F127
:103AA000000B01D102250FE001988089B8FBF0F0EE
:103AB00058442062226A01994878012304F13001B8
:103AC000FFF74EFA00B101250DB100202060284615
:103AD000E5E62DE9FF4F85B0044615469A46DDF828
:103AE00018B00020CAF8000003A9204601F056F9DA
:103AF0000490049810B9607D049018B1049809B03E
:103B0000BDE8F08F207D00F0010008B90720F6E73E
:103B1000A169E068401A01900198854200D9019D91
:103B2000C1E0A06903998989B0FBF1F201FB1200A1
:103B300000287ED1A06903998989B0FBF1F003992F
:103B40004989491E00EA0109B9F1000F1FD1A06996
:103B500010B9A06802900CE0E06A28B12046A16983
:103B6000FEF760FE029004E02046E16900F0FFFBF2
:103B700002900298022802D202206075BFE70298E4
:103B8000401C10B901206075B9E70298E061E16955
:103B90000398FEF762FE064616B902206075AEE78E
:103BA0004E4403988089B5FBF0F8B8F1000F2DD092
:103BB00009EB080003994989884203D90398408991
:103BC000A0EB090803994878434632465946FFF767
:103BD000C7F910B10120607591E7207D00F08000E9
:103BE00078B1206A801B40450BD2216A891B039B58
:103BF0009B8901FB03B003998A8904F1300100F02D
:103C0000A7FE0398808900FB08F742E0206AB042D3
:103C100020D0207D00F0800080B1226A039948788E
:103C2000012304F13001FFF7DBF918B101206075C1
:103C300065E710E0207D00F07F002075039948784B
:103C40000123324604F13001FFF78AF910B1012057
:103C5000607554E72662A06903998989B0FBF1F287
:103C600001FB1200039989890F1AAF4200D92F4630
:103C7000A06903998989B0FBF1F201FB120104F1FB
:103C8000300008443A4601460090584600F060FE75
:103C900000BFBB44A0693844A061DAF80000384492
:103CA000CAF80000ED1B002D7FF43BAF002026E793
:103CB000F8B504466946204601F070F80646002E25
:103CC00044D1207D00F0400000283FD0207D00F04E
:103CD000800070B1226A00994878012304F1300114
:103CE000FFF77EF908B10120F8BD207D00F07F00CC
:103CF000207500F0D5FB0746616A009800F03EFE93
:103D000006461EBBA56AE87A40F02000E872294604
:103D1000A268206800F092FF05F11C00E16800F045
:103D20009FFF394605F1160000F09AFF002105F1CA
:103D3000120000F0A1FF01200099C870009800F067
:103D4000A1FF0646207D00F0BF0020753046CBE77E
:103D50002DE9FF4F85B0044615469B460698029014
:103D60000020CBF8000003A9204601F017F80490CA
:103D7000049810B9607D049018B1049809B0BDE8AA
:103D8000F08F207D00F0020008B90720F6E700BFA1
:103D9000A0692844A169884202D2A069C0F1FF3518
:103DA000DEE0A06903998989B0FBF1F201FB120002
:103DB00000287CD1A06903998989B0FBF1F00399AF
:103DC0004989491E00EA010ABAF1000F26D1A0690B
:103DD00038B9A76897B900212046FEF74BFD074682
:103DE0000CE0E06A28B12046A169FEF71BFD0746FA
:103DF00004E02046E169FEF73DFD074607B9B2E061
:103E0000012F02D102206075B8E7781C10B901209B
:103E10006075B3E7E761A06800B9A760207D00F096
:103E2000800078B1226A03994878012304F13001B7
:103E3000FFF7D6F810B1012060759FE7207D00F0F4
:103E40007F002075E1690398FEF707FD064616B965
:103E50000220607592E7564403988089B5FBF0F91B
:103E6000B9F1000F31D00AEB090003994989884262
:103E700003D903984089A0EB0A09039948784B4677
:103E800032460299FFF7ACF810B10120607575E772
:103E9000206A801B484513D2206A831B0398B0F820
:103EA0000CC0029803FB0C010398828900E020E01B
:103EB00004F1300000F04CFD207D00F07F00207503
:103EC0000398808900FB09F835E0206AB0420FD0E2
:103ED000E168A06988420BD20399487801233246F1
:103EE00004F13001FFF73CF810B10120607545E79F
:103EF0002662A06903998989B0FBF1F201FB1200E7
:103F000003998989A1EB0008A84500D9A846A069B2
:103F100003998989B0FBF1F201FB120104F1300031
:103F2000084442460190029900F012FD207D40F0C5
:103F30008000207500BF029840440290A069404470
:103F4000A061E168A069884201D9A06900E0E06849
:103F5000E060DBF800004044CBF80000A5EB08056A
:103F6000002D7FF41EAF00BF207D40F04000207583
:103F7000002003E72DE9F74F8AB000210B9801607C
:103F80000A9800F08FFA08900898002803DA0B20AE
:103F90000DB0BDE8F08FC649089851F820400CB923
:103FA0000C20F5E70B9804600C9800F0FE000C90D4
:103FB000207878B16078FEF7EBFF814609F00100C8
:103FC00040B90C9820B109F0040008B10A20DFE7DD
:103FD0000020DDE700202070089860706078FEF710
:103FE0000DFF814609F0010008B10320D0E70C98CD
:103FF00020B109F0040008B10A20C9E7607804F193
:104000000C020221FEF72CFF08B10120C0E7A089B5
:10401000B0F5805F07DCA089B0F5007F03DBA089E5
:10402000411E084008B10120B2E70027394620466A
:10403000FEF75EFB0546022D01D02EDA2DE00026AC
:1040400014E04FF4DF7000EB061104F13400084473
:1040500009900998007920B10998083000F0B7FA62
:1040600000E0002002A941F82600761C042EE8D3C7
:10407000002606B1761E00BF02A850F8267027B1B0
:1040800039462046FEF734FB00E003200546022DAA
:1040900003DB701C06460428EED3042D01D1012059
:1040A00076E7022D01DB0D2072E704F13F0000F0FE
:1040B0009AFAA189884201D00D2069E704F14A00EB
:1040C00000F091FA8046B8F1000F04D104F15800D5
:1040D00000F07DFA8046C4F81C804420005DA0708A
:1040E000A078012804D0A078022801D00D204FE745
:1040F000A07808FB00F84120005D6081608918B15C
:104100006089411E084008B10D2041E704F14500D7
:1041100000F069FA2081A089C11700EBD161491133
:10412000228992FBF1F301FB132109B10D202FE746
:1041300004F1470000F057FA8246BAF1000F04D1AB
:1041400004F1540000F043FA824604F1420000F00A
:104150004AFA0190019808B90D2019E7A089C11702
:1041600000EBD1614911228992FBF1F2019941449E
:104170001144079107998A4501D20D2008E7079855
:10418000AAEB00006189B0FBF1FBBBF1000F01D18C
:104190000D20FDE603254FF6F570834500D8022576
:1041A00040F6F570834500D801250BF10200A061AF
:1041B000276201983844606207983844E062032D12
:1041C00013D104F15E0000F00EFA08B10D20DFE615
:1041D000208908B10D20DBE604F1600000F0F7F95A
:1041E000A062A0698000069014E0208908B90D2023
:1041F000CEE6606A4044A062022D02D1A069400070
:1042000007E0207E00F00100A16901EB410100EB15
:1042100051000690A089401E06990844A189B0FB70
:10422000F1F0E169884201D90D20B1E64FF0FF308D
:104230006061206180202071032D2CD104F1640085
:1042400000F0D1F9012826D1791C204600F096FB18
:1042500008BB0020207104F2322000F0C4F94AF6B5
:104260005521884217D104F1340000F0B0F911490A
:10427000884210D104F5067000F0A9F90E49884271
:1042800009D104F5077000F0A2F9606104F5087027
:1042900000F09DF92061257008480088401C80B21C
:1042A00006490880E0802046FEF7A8FA00206FE665
:1042B000AC0000205252614172724161B000002096
:1042C0002DE9F34704462646D6F8008002E001981F
:1042D000401C0190019800782F28F8D001980078B0
:1042E0005C28F4D00020B06001980078202808D223
:1042F00080212F20015500212046FEF72CFD054688
:1043000032E000BF01A92046FEF724FB054605B1B7
:1043100029E02046FEF73EFC05462F20075D3DB113
:10432000042D04D100BF07F0040000B905251AE0F0
:1043300007F0040000B116E0B07900F0100008B9F1
:10434000052510E0B8F80C106069B0FBF1F201FB34
:10435000120108F1340001EB00094946404600F023
:1043600023F9B060CEE700BF2846BDE8FC872DE901
:10437000F05F81460D46D9F80040022D02D3A069B6
:10438000A84202D84FF0010887E04FF0FF382078AC
:10439000012804D002283AD003287AD156E02E46CC
:1043A00006EB5606A089B6FBF0F0616A00EB010A45
:1043B0005146204600F0E2FA00B16DE03046761C2E
:1043C000A189B0FBF1F201FB120104F13400475C5A
:1043D000A089B6FBF0F0616A00EB010A5146204665
:1043E00000F0CCFA00B157E0A089B6FBF0F100FB79
:1043F000116104F13400405C47EA002705F0010038
:1044000008B1380901E0C7F30B00804644E0B4F876
:104410000CA00AEBDA704010B5FBF0F0616A00EB1B
:10442000010B5946204600F0A9FA00B134E06800BB
:10443000A189B0FBF1F201FB120104F1340001EBA0
:10444000000A504600F0CFF8804625E0B4F80CA0F2
:104450004FEAEA700AEB90708010B5FBF0F0616AE9
:1044600000EB010B5946204600F088FA00B113E03A
:10447000A800A189B0FBF1F201FB120104F13400A4
:1044800001EB000A504600F0A2F820F0704803E06B
:10449000FFE74FF0010800BF00BF4046BDE8F09FB6
:1044A0000020704770B502464FF0FF301568DDB14F
:1044B000116800E0491C0D78212D02D30D783A2DAA
:1044C000F8D10D783A2D0ED1146814F8015BA5F1DE
:1044D00030030A2B06D28C4204D11BB918464D1C5E
:1044E0002946156070BD002000BFFBE710B50246ED
:1044F0000B46002116E02B4800EB01100068146801
:10450000A0420ED1274800EB011040689468A042F9
:1045100007D1244800EB011080685469A04200D103
:1045200002E0491C0229E6D300BF022922D1002162
:1045300000E0491C022905D21A4800EB011000686E
:104540000028F6D1022901D1002010BD154C04EB42
:10455000011410682060134C04EB01149068606033
:10456000104C04EB01145069A06000200D4C04EBCA
:104570000114A08133B10B4800EB0110808908B110
:104580000020E2E713B14FF4807004E0054800EB2F
:1045900001108089401C034C04EB0114A081481CCD
:1045A000D3E700006832002070B505460C4604F1E0
:1045B0001A0000F018F806462878032805D104F1FF
:1045C000140000F010F846EA0046304670BD01467F
:1045D000C8788A7842EA00204A7842EA00200A78BD
:1045E00042EA00207047014648780A7842EA0020F3
:1045F0007047000008B5FCF79DF8FDF795FAFDF748
:10460000F5F8FDF75BF9FDF77BF9FDF7E1F800211F
:104610005E48FDF773FF5E48FEF736F880225D497D
:104620005D4800F0FBFA6420FBF75EFF5B495C48E5
:10463000FBF727FF012259495A48FFF7F9F85A4971
:10464000087008460078002820D0FDF74BFF04468C
:1046500056A2214656A0FDF75BFF4FF480505E4BFB
:104660000022072100904D48FEF774FD4E49087066
:104670000846007840B9FDF735FF04464BA22146B5
:1046800056A0FDF745FF09E000BFFEE7FDF72AFF52
:10469000044646A221465BA0FDF73AFF0A2262A12A
:1046A0006348FFF7F5F8404908700846007848B1BC
:1046B000FDF718FF04463DA221465EA0FDF728FF46
:1046C00000BFFEE7FDF70EFF044638A2214663A0B7
:1046D000FDF71EFF6B4864226B4903685448FFF7DF
:1046E00037FB314908700846007840B1FDF7FAFE03
:1046F00004462EA2214665A0FDF70AFF07E0FDF75C
:10470000F1FE044629A221466AA0FDF701FF4848B0
:10471000FEF70AFD24490870FDF7E4FE044623A2D3
:1047200021466FA0FDF7F4FE01223FA14048FFF7AC
:10473000AFF81D4908700846007848B1FDF7D2FE71
:1047400004461AA221463BA0FDF7E2FE00BFFEE7A9
:10475000FDF7C8FE044615A2214640A0FDF7D8FE8D
:10476000484B0B221C493248FFF7B3F90E49087039
:10477000FDF7B8FE04460DA2214662A0FDF7C8FE73
:104780002B48FEF7D1FC00BFFEE70000694D000892
:10479000754D0008C0000020040000200D0000201E
:1047A00080000020DC0100200C0000200000000040
:1047B0001B5B33326D3C25753E205B495D202573C4
:1047C000203A204D6F756E74206661696C200D0A69
:1047D0001B5B306D00000000402200201B5B333269
:1047E0006D3C25753E205B495D202573203A20668F
:1047F0006F726D6174206469736B200D0A1B5B30EE
:104800006D0000001B5B33326D3C25753E205B491B
:104810005D202573203A204D6F756E74206F6B20DC
:104820000D0A1B5B306D000074657374000000009E
:10483000101200201B5B33326D3C25753E205B4916
:104840005D202573203A206F70656E206661696C6B
:104850002121200D0A1B5B306D0000001B5B3332F1
:104860006D3C25753E205B495D202573203A206F05
:1048700070656E2066696C65206F6B200D0A1B5B8E
:10488000306D000078000020110000201B5B3332E7
:104890006D3C25753E205B495D202573203A2077CD
:1048A00072697465206661696C200D0A1B5B306D4E
:1048B000000000001B5B33326D3C25753E205B49D8
:1048C0005D202573203A20777269746520737563C3
:1048D00065737366756C6C790D0A1B5B306D000037
:1048E0001B5B33326D3C25753E205B495D20257393
:1048F000203A2066696C6520636C6F736565641B84
:104900005B306D001B5B33326D3C25753E205B498F
:104910005D202573203A20726561642066696C65AC
:10492000206F6B200D0A1B5B306D0000F0B5034655
:104930001D460C46002000BF15F8017B14F801CB82
:10494000A7EB0C00561E321E01D00028F4D0F0BD9B
:1049500030B503460C463AB100BF14F8015B03F8CA
:10496000015B551E2A1EF8D130BD10B5034600BFAD
:1049700003F8011B541E221EFAD110BD70B5044667
:104980000D460026206BA84210D0204600F0C2F948
:1049900006465EB9607801232A4604F13401FEF729
:1049A000DFFA10B14FF0FF3501262563304670BDA8
:1049B000416000BF026802F04002002AFAD070474E
:1049C0002DE9F05F04460D4616464FF00209022D10
:1049D00072D3A069A8426FD92078012804D0022898
:1049E00057D0032811D179E02F4607EB5707A0894C
:1049F000B7FBF0F0616A00EB010A51462046FFF771
:104A0000BDFF8146B9F1000F00D09DE038467F1C04
:104A1000A189B0FBF1F201FB120104F1340001EBBA
:104A2000000805F0010028B1F1B298F8000061F328
:104A30001F1000E0304688F800000120E070A089D7
:104A4000B7FBF0F0616A00EB010A51462046FFF720
:104A500095FF8146B9F1000F00D075E0A089B7FB42
:104A6000F0F100FB117104F1340001EB000805F0D6
:104A7000010010B1C6F3071006E098F8000000F03E
:104A8000F000C6F30321084388F800000120E0701D
:104A90005AE0B4F80CA00AEBDA704010B5FBF0F065
:104AA000616A00EB010B59462046FFF767FF81461C
:104AB000B9F1000F01D047E047E06800A189B0FBE1
:104AC000F1F201FB120104F1340001EB000AB1B272
:104AD000504600F0D1F80120E07035E0B4F80CA0A9
:104AE0004FEAEA700AEB90708010B5FBF0F0616A53
:104AF00000EB010B59462046FFF740FF8146B9F114
:104B0000000F00D020E0A800A189B0FBF1F201FB6A
:104B1000120104F1340001EB000A5046FFF757FD83
:104B200066F31B000646A800A189B0FBF1F201FB69
:104B3000120104F1340001EB000A3146504600F046
:104B40008FF80120E07000BF00BF4846BDE8F09F2D
:104B500010B5044644B103E014F8010BFDF780FDE5
:104B600020780028F8D10BE04E20FDF779FD552084
:104B7000FDF776FD4C20FDF773FD4C20FDF770FD31
:104B800010BD2DE9F04781460E4617464FF000084C
:104B9000D9F80040022E02D3A069B04202D8022008
:104BA000BDE8F08767B100BF4FF0FF3239462046BD
:104BB000FFF706FF8046B8F1000F01D04046EFE74F
:104BC00000BF31464846FFF7D2FB054605B922E053
:104BD000012D01D10220E3E7681C08B90120DFE7BD
:104BE000002231462046FFF7EBFE8046B8F1000F69
:104BF00001D04046D4E7D4E90510801E814206D298
:104C00006069401C6061207940F0010020712E46EF
:104C1000A069B042D5D800BF0020C1E710B5064B4F
:104C2000DB6843F02003044CE36001600271002361
:104C30004371837110BD00000010014070B506463D
:104C40000C461546A9B204F11A0000F015F83078A8
:104C5000032804D1290C04F1140000F00DF870BDF4
:104C600000F8011B090A00F8011B090A00F8011BE2
:104C7000090A00F8011B704700F8011B091200F82F
:104C8000011B704770B50446204600F043F8054606
:104C9000002D38D1207803282ED1207901282BD15E
:104CA000A289002104F13400FFF75FFE4AF6552186
:104CB00004F23220FFF7E0FF144904F13400FFF75B
:104CC000CFFF134904F50670FFF7CAFF04F507701C
:104CD0006169FFF7C5FF04F508702169FFF7C0FFA0
:104CE000206A401C20636078012304F13401226BA8
:104CF000FEF776F900202071607800221146FEF759
:104D0000AFF800B10125284670BD00005252614144
:104D1000727241612DE9F04104460027E078F8B154
:104D2000256B607801232A4604F13401FEF758F917
:104D300008B1012714E00020E070606A281AE169D8
:104D400088420DD2A67809E0E06905446078012325
:104D50002A4604F13401FEF743F9761E022EF3D2FF
:104D60003846BDE8F0810000014800687047000047
:104D70009C0000202DE9F04106460C4637460025F0
:104D800004E0795D0448FFF713FE6D1CA542F8D3DB
:104D90002046BDE8F08100000010014070B50446D7
:104DA0000D4609268CB1206878B12068007860B182
:104DB000A0882168C988884207D121684878FEF711
:104DC000E7F800F0010000B900260EB9206800E005
:104DD00000202860304670BD4FF04070E1EE100AB0
:104DE00070470000000000000000010203040607F5
:104DF00008090000000001020304435545414141F8
:104E0000414345454549494941414592924F4F4F9C
:104E10005555594F554F9C4F9E9F41494F55A5A5FC
:104E2000A6A7A8A9AAABACADAEAFB0B1B2B3B4411E
:104E30004141B8B9BABBBCBDBEBFC0C1C2C3C4C585
:104E40004141C8C9CACBCCCDCECFD1D145454549CA
:104E5000494949D9DADBDCDD49DF4FE14F4F4F4F9C
:104E6000E6E8E85555555959EEEFF0F1F2F3F4F54F
:104E7000F6F7F8F9FAFBFCFDFEFF01000400100054
:104E800040000001000200000100020004000800D0
:104E90001000200000000000B84E000800000020B4
:104EA000C0000000C4010008784F0008C0000020C6
:104EB00048380000E0010008000000000000000089
:104EC00000000000000000000048656C6C6F205777
:104ED0006F726C6400000000000000000000000021
:104EE00000000000000000000000000000000000C2
:104EF00000000000000000000000000000000000B2
:104F000000000000000000000000000000000000A1
:104F10000000000000000000000000000000000091
:104F20000000000000000000000000000000000081
:104F300000000000010000001D1E0008411E0008C6
:104F4000391E0008551E0008311E00080000000030
:104F50000000000000000000100000000100000040
:104F60000024F40000000000000000000000000029
:084F7000000000000000000039
:040000050800018965
:00000001FF
